{
  "contractName": "LiquidityExamples",
  "abi": [
    {
      "inputs": [
        {
          "internalType": "contract INonfungiblePositionManager",
          "name": "_nonfungiblePositionManager",
          "type": "address"
        }
      ],
      "stateMutability": "nonpayable",
      "type": "constructor"
    },
    {
      "inputs": [],
      "name": "DAI",
      "outputs": [
        {
          "internalType": "address",
          "name": "",
          "type": "address"
        }
      ],
      "stateMutability": "view",
      "type": "function",
      "constant": true
    },
    {
      "inputs": [],
      "name": "USDC",
      "outputs": [
        {
          "internalType": "address",
          "name": "",
          "type": "address"
        }
      ],
      "stateMutability": "view",
      "type": "function",
      "constant": true
    },
    {
      "inputs": [
        {
          "internalType": "uint256",
          "name": "",
          "type": "uint256"
        }
      ],
      "name": "deposits",
      "outputs": [
        {
          "internalType": "address",
          "name": "owner",
          "type": "address"
        },
        {
          "internalType": "uint128",
          "name": "liquidity",
          "type": "uint128"
        },
        {
          "internalType": "address",
          "name": "token0",
          "type": "address"
        },
        {
          "internalType": "address",
          "name": "token1",
          "type": "address"
        }
      ],
      "stateMutability": "view",
      "type": "function",
      "constant": true
    },
    {
      "inputs": [],
      "name": "nonfungiblePositionManager",
      "outputs": [
        {
          "internalType": "contract INonfungiblePositionManager",
          "name": "",
          "type": "address"
        }
      ],
      "stateMutability": "view",
      "type": "function",
      "constant": true
    },
    {
      "inputs": [],
      "name": "poolFee",
      "outputs": [
        {
          "internalType": "uint24",
          "name": "",
          "type": "uint24"
        }
      ],
      "stateMutability": "view",
      "type": "function",
      "constant": true
    },
    {
      "inputs": [],
      "name": "getLuckyNumber2",
      "outputs": [
        {
          "internalType": "address",
          "name": "",
          "type": "address"
        }
      ],
      "stateMutability": "view",
      "type": "function",
      "constant": true
    },
    {
      "inputs": [],
      "name": "getLuckyNumber3",
      "outputs": [
        {
          "internalType": "address",
          "name": "",
          "type": "address"
        }
      ],
      "stateMutability": "view",
      "type": "function",
      "constant": true
    },
    {
      "inputs": [
        {
          "internalType": "bool",
          "name": "token0",
          "type": "bool"
        },
        {
          "internalType": "uint256",
          "name": "amount0",
          "type": "uint256"
        },
        {
          "internalType": "bool",
          "name": "token1",
          "type": "bool"
        },
        {
          "internalType": "uint256",
          "name": "amount1",
          "type": "uint256"
        }
      ],
      "name": "approveContract",
      "outputs": [],
      "stateMutability": "nonpayable",
      "type": "function"
    },
    {
      "inputs": [
        {
          "internalType": "address",
          "name": "operator",
          "type": "address"
        },
        {
          "internalType": "address",
          "name": "",
          "type": "address"
        },
        {
          "internalType": "uint256",
          "name": "tokenId",
          "type": "uint256"
        },
        {
          "internalType": "bytes",
          "name": "",
          "type": "bytes"
        }
      ],
      "name": "onERC721Received",
      "outputs": [
        {
          "internalType": "bytes4",
          "name": "",
          "type": "bytes4"
        }
      ],
      "stateMutability": "nonpayable",
      "type": "function"
    },
    {
      "inputs": [
        {
          "internalType": "uint256",
          "name": "amount0ToMint",
          "type": "uint256"
        },
        {
          "internalType": "uint256",
          "name": "amount1ToMint",
          "type": "uint256"
        }
      ],
      "name": "beformeMintNewPosition",
      "outputs": [],
      "stateMutability": "nonpayable",
      "type": "function"
    },
    {
      "inputs": [
        {
          "internalType": "uint256",
          "name": "amount0ToMint",
          "type": "uint256"
        },
        {
          "internalType": "uint256",
          "name": "amount1ToMint",
          "type": "uint256"
        }
      ],
      "name": "beforeMintNewPosition2",
      "outputs": [
        {
          "internalType": "uint256",
          "name": "tokenId",
          "type": "uint256"
        },
        {
          "internalType": "uint128",
          "name": "liquidity",
          "type": "uint128"
        },
        {
          "internalType": "uint256",
          "name": "amount0",
          "type": "uint256"
        },
        {
          "internalType": "uint256",
          "name": "amount1",
          "type": "uint256"
        }
      ],
      "stateMutability": "nonpayable",
      "type": "function"
    },
    {
      "inputs": [
        {
          "internalType": "uint256",
          "name": "amount0ToMint",
          "type": "uint256"
        },
        {
          "internalType": "uint256",
          "name": "amount1ToMint",
          "type": "uint256"
        }
      ],
      "name": "mintNewPosition",
      "outputs": [
        {
          "internalType": "uint256",
          "name": "tokenId",
          "type": "uint256"
        },
        {
          "internalType": "uint128",
          "name": "liquidity",
          "type": "uint128"
        },
        {
          "internalType": "uint256",
          "name": "amount0",
          "type": "uint256"
        },
        {
          "internalType": "uint256",
          "name": "amount1",
          "type": "uint256"
        }
      ],
      "stateMutability": "nonpayable",
      "type": "function"
    },
    {
      "inputs": [
        {
          "internalType": "uint256",
          "name": "tokenId",
          "type": "uint256"
        }
      ],
      "name": "collectAllFees",
      "outputs": [
        {
          "internalType": "uint256",
          "name": "amount0",
          "type": "uint256"
        },
        {
          "internalType": "uint256",
          "name": "amount1",
          "type": "uint256"
        }
      ],
      "stateMutability": "nonpayable",
      "type": "function"
    },
    {
      "inputs": [
        {
          "internalType": "uint256",
          "name": "tokenId",
          "type": "uint256"
        }
      ],
      "name": "decreaseLiquidityInHalf",
      "outputs": [
        {
          "internalType": "uint256",
          "name": "amount0",
          "type": "uint256"
        },
        {
          "internalType": "uint256",
          "name": "amount1",
          "type": "uint256"
        }
      ],
      "stateMutability": "nonpayable",
      "type": "function"
    },
    {
      "inputs": [
        {
          "internalType": "uint256",
          "name": "tokenId",
          "type": "uint256"
        },
        {
          "internalType": "uint256",
          "name": "amountAdd0",
          "type": "uint256"
        },
        {
          "internalType": "uint256",
          "name": "amountAdd1",
          "type": "uint256"
        }
      ],
      "name": "increaseLiquidityCurrentRange",
      "outputs": [
        {
          "internalType": "uint128",
          "name": "liquidity",
          "type": "uint128"
        },
        {
          "internalType": "uint256",
          "name": "amount0",
          "type": "uint256"
        },
        {
          "internalType": "uint256",
          "name": "amount1",
          "type": "uint256"
        }
      ],
      "stateMutability": "nonpayable",
      "type": "function"
    },
    {
      "inputs": [
        {
          "internalType": "uint256",
          "name": "tokenId",
          "type": "uint256"
        }
      ],
      "name": "retrieveNFT",
      "outputs": [],
      "stateMutability": "nonpayable",
      "type": "function"
    }
  ],
  "bytecode": "0x60a060405234801561001057600080fd5b50604051611a8f380380611a8f83398101604081905261002f91610044565b60601b6001600160601b031916608052610072565b600060208284031215610055578081fd5b81516001600160a01b038116811461006b578182fd5b9392505050565b60805160601c6119ab6100e46000398061028e5280610346528061045b528061049452806104c252806105fd52806106bc528061071c52806107e752806108fe528061094452806109ad5280610ad65280610bdd5280610c5f5280610c985280610d405280610d8452506119ab6000f3fe608060405234801561001057600080fd5b50600436106100d05760003560e01c8063089fe6aa146100d55780630a1d7c5f146100f35780631057f38614610108578063150b7a021461011d5780631990abbd1461013d5780632dfa72ae146101505780633084a8d1146101585780633429b9141461017b57806346ce96dd1461018e578063617d6d6e146101af5780638187b4c5146101d157806389a30271146101e4578063b02c43d0146101ec578063b44a27221461020f578063e0bab4c414610217578063f058ebee1461021f575b600080fd5b6100dd610232565b6040516100ea91906118db565b60405180910390f35b6101066101013660046114dd565b610238565b005b610110610341565b6040516100ea9190611696565b61013061012b3660046113cd565b6103f5565b6040516100ea9190611702565b61010661014b366004611530565b610413565b6101106104bd565b61016b610166366004611530565b610571565b6040516100ea94939291906118eb565b610106610189366004611466565b61076a565b6101a161019c3660046114dd565b6107ae565b6040516100ea92919061190f565b6101c26101bd366004611574565b61088b565b6040516100ea939291906118ba565b6101a16101df3660046114dd565b610a44565b610110610b89565b6101ff6101fa3660046114dd565b610b9b565b6040516100ea94939291906116ce565b610110610bdb565b610110610bff565b61016b61022d366004611530565b610c11565b610bb881565b6000818152602081905260409020546001600160a01b031633146102775760405162461bcd60e51b815260040161026e90611720565b60405180910390fd5b604051632142170760e11b81526001600160a01b037f000000000000000000000000000000000000000000000000000000000000000016906342842e0e906102c7903090339086906004016116aa565b600060405180830381600087803b1580156102e157600080fd5b505af11580156102f5573d6000803e3d6000fd5b50505060009182525060208190526040902080546001600160a01b031990811682556001820180546001600160801b031916905560028201805482169055600390910180549091169055565b6000807f00000000000000000000000000000000000000000000000000000000000000006001600160a01b03166399fbab88611d556040518263ffffffff1660e01b81526004016103929190611717565b6101806040518083038186803b1580156103ab57600080fd5b505afa1580156103bf573d6000803e3d6000fd5b505050506040513d601f19601f820116820180604052508101906103e3919061159f565b50989b50505050505050505050505090565b60006104018685610d7d565b50630a85bd0160e11b95945050505050565b61042d600080516020611936833981519152333085610f43565b610447600080516020611956833981519152333084610f43565b6104806000805160206119368339815191527f00000000000000000000000000000000000000000000000000000000000000008461109b565b6104b96000805160206119568339815191527f00000000000000000000000000000000000000000000000000000000000000008361109b565b5050565b6000807f00000000000000000000000000000000000000000000000000000000000000006001600160a01b03166399fbab88611d556040518263ffffffff1660e01b815260040161050e9190611717565b6101806040518083038186803b15801561052757600080fd5b505afa15801561053b573d6000803e3d6000fd5b505050506040513d601f19601f8201168201806040525081019061055f919061159f565b50979b50505050505050505050505090565b604080516101608101825260008051602061195683398151915281526000805160206119368339815191526020820152610bb881830152620d89b3196060820152620d89b4608082015260a0810184905260c08101839052600060e08201819052610100820181905230610120830152426101408301529151634418b22b60e11b8152829182918291907f00000000000000000000000000000000000000000000000000000000000000006001600160a01b03169063883164569061063a90849060040161180c565b608060405180830381600087803b15801561065457600080fd5b505af1158015610668573d6000803e3d6000fd5b505050506040513d601f19601f8201168201806040525081019061068c91906114f5565b929750909550935091506106a03386610d7d565b86831015610700576106e26000805160206119368339815191527f0000000000000000000000000000000000000000000000000000000000000000600061109b565b8287036106fe60008051602061193683398151915233836111e9565b505b85821015610760576107426000805160206119568339815191527f0000000000000000000000000000000000000000000000000000000000000000600061109b565b81860361075e60008051602061195683398151915233836111e9565b505b5092959194509250565b831561078957610789600080516020611936833981519152308561109b565b81156107a8576107a8600080516020611956833981519152308361109b565b50505050565b604080516080810182528281523060208201526001600160801b038183018190526060820152905163fc6f786560e01b815260009182917f00000000000000000000000000000000000000000000000000000000000000006001600160a01b03169063fc6f786590610824908490600401611747565b6040805180830381600087803b15801561083d57600080fd5b505af1158015610851573d6000803e3d6000fd5b505050506040513d601f19601f820116820180604052508101906108759190611551565b9093509150610885848484611330565b50915091565b600083815260208190526040812060020154819081906108b6906001600160a01b0316333088610f43565b6000868152602081905260409020600301546108dd906001600160a01b0316333087610f43565b600086815260208190526040902060020154610923906001600160a01b03167f00000000000000000000000000000000000000000000000000000000000000008761109b565b600086815260208190526040902060030154610969906001600160a01b03167f00000000000000000000000000000000000000000000000000000000000000008661109b565b6040805160c0810182528781526020810187905280820186905260006060820181905260808201524260a0820152905163219f5d1760e01b81526001600160a01b037f0000000000000000000000000000000000000000000000000000000000000000169063219f5d17906109e29084906004016117c8565b606060405180830381600087803b1580156109fc57600080fd5b505af1158015610a10573d6000803e3d6000fd5b505050506040513d601f19601f82011682018060405250810190610a3491906114a9565b9199909850909650945050505050565b60008181526020819052604081205481906001600160a01b03163314610a7c5760405162461bcd60e51b815260040161026e90611720565b6000838152602081905260408120600101546001600160801b03169060028204905060006040518060a00160405280878152602001836001600160801b0316815260200160008152602001600081526020014281525090507f00000000000000000000000000000000000000000000000000000000000000006001600160a01b0316630c49ccbe826040518263ffffffff1660e01b8152600401610b20919061178a565b6040805180830381600087803b158015610b3957600080fd5b505af1158015610b4d573d6000803e3d6000fd5b505050506040513d601f19601f82011682018060405250810190610b719190611551565b9095509350610b81868686611330565b505050915091565b60008051602061195683398151915281565b60006020819052908152604090208054600182015460028301546003909301546001600160a01b03928316936001600160801b0390921692918216911684565b7f000000000000000000000000000000000000000000000000000000000000000081565b60008051602061193683398151915281565b600080600080610c31600080516020611936833981519152333089610f43565b610c4b600080516020611956833981519152333088610f43565b610c846000805160206119368339815191527f00000000000000000000000000000000000000000000000000000000000000008861109b565b610cbd6000805160206119568339815191527f00000000000000000000000000000000000000000000000000000000000000008761109b565b604080516101608101825260008051602061193683398151915281526000805160206119568339815191526020820152610bb881830152620d89e7196060820152620d89e8608082015260a0810188905260c08101879052600060e0820181905261010082015230610120820152426101408201529051634418b22b60e11b81527f00000000000000000000000000000000000000000000000000000000000000006001600160a01b03169063883164569061063a90849060040161180c565b60008060007f00000000000000000000000000000000000000000000000000000000000000006001600160a01b03166399fbab88856040518263ffffffff1660e01b8152600401610dce9190611717565b6101806040518083038186803b158015610de757600080fd5b505afa158015610dfb573d6000803e3d6000fd5b505050506040513d601f19601f82011682018060405250810190610e1f919061159f565b5050505097505050509450945050506040518060800160405280866001600160a01b03168152602001826001600160801b03168152602001846001600160a01b03168152602001836001600160a01b031681525060008086815260200190815260200160002060008201518160000160006101000a8154816001600160a01b0302191690836001600160a01b0316021790555060208201518160010160006101000a8154816001600160801b0302191690836001600160801b0316021790555060408201518160020160006101000a8154816001600160a01b0302191690836001600160a01b0316021790555060608201518160030160006101000a8154816001600160a01b0302191690836001600160a01b031602179055509050505050505050565b604080516001600160a01b0385811660248301528481166044830152606480830185905283518084039091018152608490920183526020820180516001600160e01b03166323b872dd60e01b178152925182516000948594938a169392918291908083835b60208310610fc75780518252601f199092019160209182019101610fa8565b6001836020036101000a0380198251168184511680821785525050505050509050019150506000604051808303816000865af19150503d8060008114611029576040519150601f19603f3d011682016040523d82523d6000602084013e61102e565b606091505b509150915081801561105c57508051158061105c575080806020019051602081101561105957600080fd5b50515b611093576040805162461bcd60e51b815260206004820152600360248201526229aa2360e91b604482015290519081900360640190fd5b505050505050565b604080516001600160a01b038481166024830152604480830185905283518084039091018152606490920183526020820180516001600160e01b031663095ea7b360e01b1781529251825160009485949389169392918291908083835b602083106111175780518252601f1990920191602091820191016110f8565b6001836020036101000a0380198251168184511680821785525050505050509050019150506000604051808303816000865af19150503d8060008114611179576040519150601f19603f3d011682016040523d82523d6000602084013e61117e565b606091505b50915091508180156111ac5750805115806111ac57508080602001905160208110156111a957600080fd5b50515b6111e2576040805162461bcd60e51b8152602060048201526002602482015261534160f01b604482015290519081900360640190fd5b5050505050565b604080516001600160a01b038481166024830152604480830185905283518084039091018152606490920183526020820180516001600160e01b031663a9059cbb60e01b1781529251825160009485949389169392918291908083835b602083106112655780518252601f199092019160209182019101611246565b6001836020036101000a0380198251168184511680821785525050505050509050019150506000604051808303816000865af19150503d80600081146112c7576040519150601f19603f3d011682016040523d82523d6000602084013e6112cc565b606091505b50915091508180156112fa5750805115806112fa57508080602001905160208110156112f757600080fd5b50515b6111e2576040805162461bcd60e51b815260206004820152600260248201526114d560f21b604482015290519081900360640190fd5b6000838152602081905260409020805460028201546003909201546001600160a01b0391821692821691166113668284876111e9565b6110938184866111e9565b805161137c8161191d565b919050565b8035801515811461137c57600080fd5b8051600281900b811461137c57600080fd5b80516001600160801b038116811461137c57600080fd5b805162ffffff8116811461137c57600080fd5b6000806000806000608086880312156113e4578081fd5b85356113ef8161191d565b945060208601356113ff8161191d565b93506040860135925060608601356001600160401b0380821115611421578283fd5b818801915088601f830112611434578283fd5b813581811115611442578384fd5b896020828501011115611453578384fd5b9699959850939650602001949392505050565b6000806000806080858703121561147b578384fd5b61148485611381565b93506020850135925061149960408601611381565b9396929550929360600135925050565b6000806000606084860312156114bd578283fd5b6114c6846113a3565b925060208401519150604084015190509250925092565b6000602082840312156114ee578081fd5b5035919050565b6000806000806080858703121561150a578384fd5b8451935061151a602086016113a3565b6040860151606090960151949790965092505050565b60008060408385031215611542578182fd5b50508035926020909101359150565b60008060408385031215611563578182fd5b505080516020909101519092909150565b600080600060608486031215611588578283fd5b505081359360208301359350604090920135919050565b6000806000806000806000806000806000806101808d8f0312156115c1578687fd5b8c516001600160601b03811681146115d7578788fd5b9b506115e560208e01611371565b9a506115f360408e01611371565b995061160160608e01611371565b985061160f60808e016113ba565b975061161d60a08e01611391565b965061162b60c08e01611391565b955061163960e08e016113a3565b94506101008d015193506101208d015192506116586101408e016113a3565b91506116676101608e016113a3565b90509295989b509295989b509295989b565b6001600160a01b03169052565b60020b9052565b62ffffff169052565b6001600160a01b0391909116815260200190565b6001600160a01b039384168152919092166020820152604081019190915260600190565b6001600160a01b0394851681526001600160801b039390931660208401529083166040830152909116606082015260800190565b6001600160e01b031991909116815260200190565b90815260200190565b6020808252600d908201526c2737ba103a34329037bbb732b960991b604082015260600190565b815181526020808301516001600160a01b0316908201526040808301516001600160801b0390811691830191909152606092830151169181019190915260800190565b815181526020808301516001600160801b03169082015260408083015190820152606080830151908201526080918201519181019190915260a00190565b600060c082019050825182526020830151602083015260408301516040830152606083015160608301526080830151608083015260a083015160a083015292915050565b600061016082019050611820828451611679565b60208301516118326020840182611679565b506040830151611845604084018261168d565b5060608301516118586060840182611686565b50608083015161186b6080840182611686565b5060a083015160a083015260c083015160c083015260e083015160e0830152610100808401518184015250610120808401516118a982850182611679565b505061014092830151919092015290565b6001600160801b039390931683526020830191909152604082015260600190565b62ffffff91909116815260200190565b9384526001600160801b039290921660208401526040830152606082015260800190565b918252602082015260400190565b6001600160a01b038116811461193257600080fd5b5056fe000000000000000000000000ad6d458402f60fd3bd25163575031acdce07538d00000000000000000000000007865c6e87b9f70255377e024ace6630c1eaa37fa2646970667358221220c3c7aeefdce5d23451cc3a6b1c62c475d3699af5512de50701c8dc9b8f236bef64736f6c63430007060033",
  "immutableReferences": {
    "2989": [
      {
        "length": 32,
        "start": 654
      },
      {
        "length": 32,
        "start": 838
      },
      {
        "length": 32,
        "start": 1115
      },
      {
        "length": 32,
        "start": 1172
      },
      {
        "length": 32,
        "start": 1218
      },
      {
        "length": 32,
        "start": 1533
      },
      {
        "length": 32,
        "start": 1724
      },
      {
        "length": 32,
        "start": 1820
      },
      {
        "length": 32,
        "start": 2023
      },
      {
        "length": 32,
        "start": 2302
      },
      {
        "length": 32,
        "start": 2372
      },
      {
        "length": 32,
        "start": 2477
      },
      {
        "length": 32,
        "start": 2774
      },
      {
        "length": 32,
        "start": 3037
      },
      {
        "length": 32,
        "start": 3167
      },
      {
        "length": 32,
        "start": 3224
      },
      {
        "length": 32,
        "start": 3392
      },
      {
        "length": 32,
        "start": 3460
      }
    ]
  },
  "source": "// SPDX-License-Identifier: GPL-2.0-or-later\npragma solidity =0.7.6;\npragma abicoder v2;\n\nimport '@uniswap/v3-core/contracts/interfaces/IUniswapV3Pool.sol';\nimport '@uniswap/v3-core/contracts/libraries/TickMath.sol';\nimport '@openzeppelin/contracts/token/ERC721/IERC721Receiver.sol';\nimport '@uniswap/v3-periphery/contracts/libraries/TransferHelper.sol';\nimport '@uniswap/v3-periphery/contracts/interfaces/INonfungiblePositionManager.sol';\nimport '@uniswap/v3-periphery/contracts/base/LiquidityManagement.sol';\n\ncontract LiquidityExamples is IERC721Receiver {\n//    address public constant DAI = 0x6B175474E89094C44Da98b954EedeAC495271d0F;\n//    address public constant USDC = 0xA0b86991c6218b36c1d19D4a2e9Eb0cE3606eB48;\n    address public constant USDC = 0x07865c6E87B9F70255377e024ace6630C1Eaa37F;\n    address public constant DAI = 0xaD6D458402F60fD3Bd25163575031ACDce07538D;\n\n    uint24 public constant poolFee = 3000;\n    //uint public luckyNumber;\n\n    INonfungiblePositionManager public immutable nonfungiblePositionManager;\n    //INonfungiblePositionManager public nonfungiblePositionManager;\n\n\n    /// @notice Represents the deposit of an NFT\n    struct Deposit {\n        address owner;\n        uint128 liquidity;\n        address token0;\n        address token1;\n    }\n\n    /// @dev deposits[tokenId] => Deposit\n    mapping(uint256 => Deposit) public deposits;\n\n    constructor(\n        INonfungiblePositionManager _nonfungiblePositionManager\n    ) {\n        nonfungiblePositionManager = _nonfungiblePositionManager;\n     \n    //      luckyNumber = 110180;\n    }\n\n    // function getLuckyNumber() external view returns (\n    //         uint96 nonce,\n    //         address operator,\n    //         address token0,\n    //         address token1,\n    //         uint24 fee,\n    //         int24 tickLower,\n    //         int24 tickUpper,\n    //         uint128 liquidity,\n    //         uint256 feeGrowthInside0LastX128,\n    //         uint256 feeGrowthInside1LastX128,\n    //         uint128 tokensOwed0,\n    //         uint128 tokensOwed1\n    //     ) {       \n    //     (uint96 nonce,\n    //         address operator,\n    //         address token0,\n    //         address token1,\n    //         uint24 fee,\n    //         int24 tickLower,\n    //         int24 tickUpper,\n    //         uint128 liquidity,\n    //         uint256 feeGrowthInside0LastX128,\n    //         uint256 feeGrowthInside1LastX128,\n    //         uint128 tokensOwed0,\n    //         uint128 tokensOwed1) =\n    //         nonfungiblePositionManager.positions(7509);\n    // }\n        function getLuckyNumber2() external view returns (address ) {       \n        (, address operator, , , , , , , , , , ) =\n            nonfungiblePositionManager.positions(7509);\n        return operator;\n    }\n\n        function getLuckyNumber3() external view returns (address ) {       \n        (, , address token0, , , , , , , , , ) =\n            nonfungiblePositionManager.positions(7509);\n        return token0;\n    }\n    function approveContract(bool token0, uint amount0, bool token1, uint amount1 )external {\n        if (token0){\n            TransferHelper.safeApprove(DAI, address(this), amount0);\n        }\n        if (token1){\n            TransferHelper.safeApprove(USDC, address(this), amount1);\n        }\n    }\n\n    // Implementing `onERC721Received` so this contract can receive custody of erc721 tokens\n    function onERC721Received(\n        address operator,\n        address,\n        uint256 tokenId,\n        bytes calldata\n    ) external override returns (bytes4) {\n        // get position information\n\n        _createDeposit(operator, tokenId);\n\n        return this.onERC721Received.selector;\n    }\n\n    function _createDeposit(address owner, uint256 tokenId) internal {\n        (, , address token0, address token1, , , , uint128 liquidity, , , , ) =\n            nonfungiblePositionManager.positions(tokenId);\n\n        // set the owner and data for position\n        // operator is msg.sender\n        deposits[tokenId] = Deposit({owner: owner, liquidity: liquidity, token0: token0, token1: token1});\n    }\n\n        function beformeMintNewPosition(uint256 amount0ToMint, uint256 amount1ToMint)\n        external\n    {\n        // For this example, we will provide equal amounts of liquidity in both assets.\n        // Providing liquidity in both assets means liquidity will be earning fees and is considered in-range.\n        // uint256 amount0ToMint = 10;\n        // uint256 amount1ToMint = 10;\n\n        // transfer tokens to contract\n        TransferHelper.safeTransferFrom(DAI, msg.sender, address(this), amount0ToMint);\n        TransferHelper.safeTransferFrom(USDC, msg.sender, address(this), amount1ToMint);\n\n        // Approve the position manager\n        TransferHelper.safeApprove(DAI, address(nonfungiblePositionManager), amount0ToMint);\n        TransferHelper.safeApprove(USDC, address(nonfungiblePositionManager), amount1ToMint);\n\n        \n    }\nfunction beforeMintNewPosition2(uint256 amount0ToMint, uint256 amount1ToMint)\n        external\n        returns (\n            uint256 tokenId,\n            uint128 liquidity,\n            uint256 amount0,\n            uint256 amount1\n        )\n    {\n        INonfungiblePositionManager.MintParams memory params =\n            INonfungiblePositionManager.MintParams({\n                token0: USDC,\n                token1: DAI,\n                fee: poolFee,\n                tickLower: -887220,\n                tickUpper: 887220,\n                amount0Desired: amount0ToMint,\n                amount1Desired: amount1ToMint,\n                amount0Min: 0,\n                amount1Min: 0,\n                recipient: address(this),\n                deadline: block.timestamp\n            });\n\n        // Note that the pool defined by DAI/USDC and fee tier 0.3% must already be created and initialized in order to mint\n        (tokenId, liquidity, amount0, amount1) = nonfungiblePositionManager.mint(params);\n\n        // Create a deposit\n        _createDeposit(msg.sender, tokenId);\n\n        // Remove allowance and refund in both assets.\n        if (amount0 < amount0ToMint) {\n            TransferHelper.safeApprove(DAI, address(nonfungiblePositionManager), 0);\n            uint256 refund0 = amount0ToMint - amount0;\n            TransferHelper.safeTransfer(DAI, msg.sender, refund0);\n        }\n\n        if (amount1 < amount1ToMint) {\n            TransferHelper.safeApprove(USDC, address(nonfungiblePositionManager), 0);\n            uint256 refund1 = amount1ToMint - amount1;\n            TransferHelper.safeTransfer(USDC, msg.sender, refund1);\n        }\n    }\n    function mintNewPosition(uint amount0ToMint, uint amount1ToMint)\n        external\n        returns (\n            uint256 tokenId,\n            uint128 liquidity,\n            uint256 amount0,\n            uint256 amount1\n        )\n    {\n        // For this example, we will provide equal amounts of liquidity in both assets.\n        // Providing liquidity in both assets means liquidity will be earning fees and is considered in-range.\n        // uint256 amount0ToMint = 10;\n        // uint256 amount1ToMint = 10;\n\n        // transfer tokens to contract\n        TransferHelper.safeTransferFrom(DAI, msg.sender, address(this), amount0ToMint);\n        TransferHelper.safeTransferFrom(USDC, msg.sender, address(this), amount1ToMint);\n\n        // Approve the position manager\n        TransferHelper.safeApprove(DAI, address(nonfungiblePositionManager), amount0ToMint);\n        TransferHelper.safeApprove(USDC, address(nonfungiblePositionManager), amount1ToMint);\n\n        INonfungiblePositionManager.MintParams memory params =\n            INonfungiblePositionManager.MintParams({\n                token0: DAI,\n                token1: USDC,\n                fee: poolFee,\n                tickLower: TickMath.MIN_TICK,\n                tickUpper: TickMath.MAX_TICK,\n                amount0Desired: amount0ToMint,\n                amount1Desired: amount1ToMint,\n                amount0Min: 0,\n                amount1Min: 0,\n                recipient: address(this),\n                deadline: block.timestamp\n            });\n\n        // Note that the pool defined by DAI/USDC and fee tier 0.3% must already be created and initialized in order to mint\n        (tokenId, liquidity, amount0, amount1) = nonfungiblePositionManager.mint(params);\n\n        // Create a deposit\n        _createDeposit(msg.sender, tokenId);\n\n        // Remove allowance and refund in both assets.\n        if (amount0 < amount0ToMint) {\n            TransferHelper.safeApprove(DAI, address(nonfungiblePositionManager), 0);\n            uint256 refund0 = amount0ToMint - amount0;\n            TransferHelper.safeTransfer(DAI, msg.sender, refund0);\n        }\n\n        if (amount1 < amount1ToMint) {\n            TransferHelper.safeApprove(USDC, address(nonfungiblePositionManager), 0);\n            uint256 refund1 = amount1ToMint - amount1;\n            TransferHelper.safeTransfer(USDC, msg.sender, refund1);\n        }\n    }\n\n    /// @notice Collects the fees associated with provided liquidity\n    /// @dev The contract must hold the erc721 token before it can collect fees\n    /// @param tokenId The id of the erc721 token\n    /// @return amount0 The amount of fees collected in token0\n    /// @return amount1 The amount of fees collected in token1\n    function collectAllFees(uint256 tokenId) external returns (uint256 amount0, uint256 amount1) {\n        // Caller must own the ERC721 position, meaning it must be a deposit\n\n        // set amount0Max and amount1Max to uint256.max to collect all fees\n        // alternatively can set recipient to msg.sender and avoid another transaction in `sendToOwner`\n        INonfungiblePositionManager.CollectParams memory params =\n            INonfungiblePositionManager.CollectParams({\n                tokenId: tokenId,\n                recipient: address(this),\n                amount0Max: type(uint128).max,\n                amount1Max: type(uint128).max\n            });\n\n        (amount0, amount1) = nonfungiblePositionManager.collect(params);\n\n        // send collected feed back to owner\n        _sendToOwner(tokenId, amount0, amount1);\n    }\n\n    /// @notice A function that decreases the current liquidity by half. An example to show how to call the `decreaseLiquidity` function defined in periphery.\n    /// @param tokenId The id of the erc721 token\n    /// @return amount0 The amount received back in token0\n    /// @return amount1 The amount returned back in token1\n    function decreaseLiquidityInHalf(uint256 tokenId) external returns (uint256 amount0, uint256 amount1) {\n        // caller must be the owner of the NFT\n        require(msg.sender == deposits[tokenId].owner, 'Not the owner');\n        // get liquidity data for tokenId\n        uint128 liquidity = deposits[tokenId].liquidity;\n        uint128 halfLiquidity = liquidity / 2;\n\n        // amount0Min and amount1Min are price slippage checks\n        // if the amount received after burning is not greater than these minimums, transaction will fail\n        INonfungiblePositionManager.DecreaseLiquidityParams memory params =\n            INonfungiblePositionManager.DecreaseLiquidityParams({\n                tokenId: tokenId,\n                liquidity: halfLiquidity,\n                amount0Min: 0,\n                amount1Min: 0,\n                deadline: block.timestamp\n            });\n\n        (amount0, amount1) = nonfungiblePositionManager.decreaseLiquidity(params);\n\n        //send liquidity back to owner\n        _sendToOwner(tokenId, amount0, amount1);\n    }\n\n    /// @notice Increases liquidity in the current range\n    /// @dev Pool must be initialized already to add liquidity\n    /// @param tokenId The id of the erc721 token\n    /// @param amount0 The amount to add of token0\n    /// @param amount1 The amount to add of token1\n    function increaseLiquidityCurrentRange(\n        uint256 tokenId,\n        uint256 amountAdd0,\n        uint256 amountAdd1\n    )\n        external\n        returns (\n            uint128 liquidity,\n            uint256 amount0,\n            uint256 amount1\n        ) {\n        \n        TransferHelper.safeTransferFrom(deposits[tokenId].token0, msg.sender, address(this), amountAdd0);\n        TransferHelper.safeTransferFrom(deposits[tokenId].token1, msg.sender, address(this), amountAdd1);\n\n        TransferHelper.safeApprove(deposits[tokenId].token0, address(nonfungiblePositionManager), amountAdd0);\n        TransferHelper.safeApprove(deposits[tokenId].token1, address(nonfungiblePositionManager), amountAdd1);\n\n        INonfungiblePositionManager.IncreaseLiquidityParams memory params = INonfungiblePositionManager.IncreaseLiquidityParams({\n            tokenId: tokenId,\n            amount0Desired: amountAdd0,\n            amount1Desired: amountAdd1,\n            amount0Min: 0,\n            amount1Min: 0,\n            deadline: block.timestamp\n        });\n\n        (liquidity, amount0, amount1) = nonfungiblePositionManager.increaseLiquidity(params);\n\n    }\n\n    /// @notice Transfers funds to owner of NFT\n    /// @param tokenId The id of the erc721\n    /// @param amount0 The amount of token0\n    /// @param amount1 The amount of token1\n    function _sendToOwner(\n        uint256 tokenId,\n        uint256 amount0,\n        uint256 amount1\n    ) internal {\n        // get owner of contract\n        address owner = deposits[tokenId].owner;\n\n        address token0 = deposits[tokenId].token0;\n        address token1 = deposits[tokenId].token1;\n        // send collected fees to owner\n        TransferHelper.safeTransfer(token0, owner, amount0);\n        TransferHelper.safeTransfer(token1, owner, amount1);\n    }\n\n    /// @notice Transfers the NFT to the owner\n    /// @param tokenId The id of the erc721\n    function retrieveNFT(uint256 tokenId) external {\n        // must be the owner of the NFT\n        require(msg.sender == deposits[tokenId].owner, 'Not the owner');\n        // transfer ownership to original owner\n        nonfungiblePositionManager.safeTransferFrom(address(this), msg.sender, tokenId);\n        //remove information related to tokenId\n        delete deposits[tokenId];\n    }\n}",
  "sourcePath": "/Users/goncalovicente/SimpleExample/contracts/LiquidityExamples.sol",
  "compiler": {
    "name": "solc",
    "version": "0.7.6+commit.7338295f.Emscripten.clang"
  },
  "schemaVersion": "3.4.3",
  "updatedAt": "2021-10-07T11:10:42.829Z",
  "networkType": "ethereum",
  "devdoc": {
    "kind": "dev",
    "methods": {
      "collectAllFees(uint256)": {
        "details": "The contract must hold the erc721 token before it can collect fees",
        "params": {
          "tokenId": "The id of the erc721 token"
        },
        "returns": {
          "amount0": "The amount of fees collected in token0",
          "amount1": "The amount of fees collected in token1"
        }
      },
      "decreaseLiquidityInHalf(uint256)": {
        "params": {
          "tokenId": "The id of the erc721 token"
        },
        "returns": {
          "amount0": "The amount received back in token0",
          "amount1": "The amount returned back in token1"
        }
      },
      "increaseLiquidityCurrentRange(uint256,uint256,uint256)": {
        "details": "Pool must be initialized already to add liquidity",
        "params": {
          "amount0": "The amount to add of token0",
          "amount1": "The amount to add of token1",
          "tokenId": "The id of the erc721 token"
        }
      },
      "retrieveNFT(uint256)": {
        "params": {
          "tokenId": "The id of the erc721"
        }
      }
    },
    "stateVariables": {
      "deposits": {
        "details": "deposits[tokenId] => Deposit"
      }
    },
    "version": 1
  },
  "userdoc": {
    "kind": "user",
    "methods": {
      "collectAllFees(uint256)": {
        "notice": "Collects the fees associated with provided liquidity"
      },
      "decreaseLiquidityInHalf(uint256)": {
        "notice": "A function that decreases the current liquidity by half. An example to show how to call the `decreaseLiquidity` function defined in periphery."
      },
      "increaseLiquidityCurrentRange(uint256,uint256,uint256)": {
        "notice": "Increases liquidity in the current range"
      },
      "retrieveNFT(uint256)": {
        "notice": "Transfers the NFT to the owner"
      }
    },
    "version": 1
  }
}